:020000040000FA
:0400000007EF00F016
:0A0008006082B6ED12F070EF18F000
:100600000000000000DCCFD1350000000000C01564
:100610003F6042A20D70A5EC363BAAB83F4F38763A
:100620003F3CAA38338CBEBF350072313F1872315F
:100630003F4CBB31330EEADDB555B38A38610B361A
:10064000BBABAA2A3E42F1533E55326C3E05A38B0A
:100650003EABAAAA3EB76DDB3E9A99193F6042A213
:100660000DCAF249710000804B0000803F0000C0BD
:100670003F00AAB83FC623F6B80040763F506F69E6
:100680006E743A7B783A252E33662C793A252E33D0
:10069000662C7A3A252E33667D00626173C4B16C94
:1006A00064C4B1000D0A0000B4C09CF0B5C09DF058
:1006B00096EC15F021EEB3F00B0EEBCFDBFFE80666
:1006C000FCE2B4C09CF0B5C09DF058EC15F021EEF2
:1006D000BFF00B0EEBCFDBFFE806FCE2BFC190F0F2
:1006E000C0C191F0C1C192F0C2C193F0B3C194F006
:1006F000B4C195F0B5C196F0B6C197F0E6EC16F02E
:1007000090C089F191C08AF192C08BF193C08CF1B5
:10071000C3C190F0C4C191F0C5C192F0C6C193F0BD
:10072000B7C194F0B8C195F0B9C196F0BAC197F0CD
:10073000E6EC16F090C08DF191C08EF192C08FF171
:1007400093C090F1C7C190F0C8C191F0C9C192F0B7
:10075000CAC193F0BBC194F0BCC195F0BDC196F085
:10076000BEC197F0E6EC16F090C091F191C092F105
:1007700092C093F193C094F1000E0001806F000EBF
:10078000816F000E826F000E836F89C184F08AC171
:1007900085F08BC186F08CC187F033EC12F000013C
:1007A000D8B0D5EF03F0D7EF03F0DEEF03F0000E83
:1007B0000101AE6F010EAD6FE1EF03F00101AD6914
:1007C000AE69000E0001806F000E816F000E826F17
:1007D000000E836F8DC184F08EC185F08FC186F0CD
:1007E00090C187F033EC12F00001D8B0FAEF03F0BB
:1007F000FCEF03F003EF04F0000E0101B06F010EF7
:10080000AF6F06EF04F00101AF69B069000E00019F
:10081000806F000E816F000E826F000E836F91C19A
:1008200084F092C185F093C186F094C187F033ECD7
:1008300012F00001D8B01FEF04F021EF04F028EF10
:1008400004F0000E0101B26F010EB16F2BEF04F046
:100850000101B169B269B3C194F0B4C195F0B5C1F9
:1008600096F0B6C197F0BFC190F0C0C191F0C1C180
:1008700092F0C2C193F0E6EC16F090C098F091C0EF
:1008800099F092C09AF093C09BF0AFEC11F098C031
:10089000A2F099C0A3F02CEC17F00001A2C0A6F0C2
:1008A000A3C0A7F0000EA7BFFF0EA86FA96F010E8F
:1008B000BDEC0FF0A6C089F1A7C08AF1A8C08BF1EA
:1008C000A9C08CF1B7C194F0B8C195F0B9C196F048
:1008D000BAC197F0C3C190F0C4C191F0C5C192F004
:1008E000C6C193F0E6EC16F090C098F091C099F074
:1008F00092C09AF093C09BF0AFEC11F098C0A2F0B8
:1009000099C0A3F02CEC17F00001A2C0A6F0A3C080
:10091000A7F0000EA7BFFF0EA86FA96F010EBDECD8
:100920000FF0A6C08DF1A7C08EF1A8C08FF1A9C0AD
:1009300090F1BBC194F0BCC195F0BDC196F0BEC1B1
:1009400097F0C7C190F0C8C191F0C9C192F0CAC177
:1009500093F0E6EC16F090C098F091C099F092C038
:100960009AF093C09BF0AFEC11F098C0A2F099C040
:10097000A3F02CEC17F00001A2C0A6F0A3C0A7F0D2
:10098000000EA7BFFF0EA86FA96F010EBDEC0FF000
:10099000A6C091F1A7C092F1A8C093F1A9C094F1AB
:1009A000B4C080F0B5C081F0FBEC18F080C084F0DA
:1009B00081C085F082C086F083C087F089C188F04D
:1009C0008AC189F08BC18AF08CC18BF0D9EC0BF015
:1009D00084C0CFF185C0D0F186C0D1F187C0D2F1FB
:1009E000120E0001B425806F000EB521816FFBEC63
:1009F00018F080C084F081C085F082C086F083C08A
:100A000087F08DC188F08EC189F08FC18AF090C1C6
:100A10008BF0D9EC0BF084C0D3F185C0D4F186C043
:100A2000D5F187C0D6F1240E0001B425806F000EE9
:100A3000B521816FFBEC18F080C084F081C085F097
:100A400082C086F083C087F091C188F092C189F09E
:100A500093C18AF094C18BF0D9EC0BF084C0CBF138
:100A600085C0CCF186C0CDF187C0CEF1CFC180F07A
:100A7000D0C181F0D1C182F0D2C183F0D3C184F062
:100A8000D4C185F0D5C186F0D6C187F033EC12F021
:100A90000001D8A04EEF05F050EF05F0B3EF06F0DF
:100AA000CFC180F0D0C181F0D1C182F0D2C183F03A
:100AB000CBC184F0CCC185F0CDC186F0CEC187F02A
:100AC00033EC12F00001D8A068EF05F06AEF05F0F2
:100AD000B3EF06F0CFC180F0D0C181F0D1C182F078
:100AE000D2C183F0D3C184F0D4C185F0D5C186F0E2
:100AF000D6C187F0EFEC0DF080C071F181C072F1CA
:100B000082C073F183C074F1CFC180F0D0C181F095
:100B1000D1C182F0D2C183F0CBC184F0CCC185F0C9
:100B2000CDC186F0CEC187F0EFEC0DF080C075F13D
:100B300081C076F182C077F183C078F1000E0001A8
:100B4000806F000E816F800E826FBF0E836FCFC1EA
:100B500084F0D0C185F0D1C186F0D2C187F033ECEA
:100B600012F00001D8A0B7EF05F0B9EF05F0BBEF28
:100B700005F077EF09F0B4C08AF0B5C08BF0ADC1D5
:100B80008CF0AEC18DF019EC15F095C180F096C1D6
:100B900081F097C182F098C183F071C184F072C175
:100BA00085F073C186F074C187F033EC12F0000158
:100BB000D8A0DDEF05F0DFEF05F005EF06F0120E2F
:100BC000B4258A6F000EB5218B6FAFC18CF0B0C118
:100BD0008DF019EC15F095C190F096C191F097C188
:100BE00092F098C193F071C194F072C195F073C105
:100BF00096F074C197F0E6EC16F090C095F191C0B4
:100C000096F192C097F193C098F199C180F09AC182
:100C100081F09BC182F09CC183F075C184F076C1E4
:100C200085F077C186F078C187F033EC12F00001CF
:100C3000D8A01DEF06F01FEF06F045EF06F0240EDA
:100C4000B4258A6F000EB5218B6FB1C18CF0B2C193
:100C50008DF019EC15F099C190F09AC191F09BC1FB
:100C600092F09CC193F075C194F076C195F077C174
:100C700096F078C197F0E6EC16F090C099F191C02B
:100C80009AF192C09BF193C09CF195C180F096C1FE
:100C900081F097C182F098C183F0000E0001846F4B
:100CA000000E856F800E866F3F0E876F78EC09F01F
:100CB00080C095F181C096F182C097F183C098F110
:100CC00099C180F09AC181F09BC182F09CC183F0F0
:100CD000000E0001846F000E856F800E866F3F0E40
:100CE000876F78EC09F080C099F181C09AF182C0D9
:100CF0009BF183C09CF1CFC190F0D0C191F0D1C1E4
:100D000092F0D2C193F0000E0001946F000E956F27
:100D1000800E966F3F0E976FE6EC16F090C0CFF105
:100D200091C0D0F192C0D1F193C0D2F1000E000178
:100D3000806F000E816F800E826FBF0E836FCFC1F8
:100D400084F0D0C185F0D1C186F0D2C187F033ECF8
:100D500012F00001D8A0AFEF06F0B1EF06F0BBEF44
:100D600005F077EF09F0D3C180F0D4C181F0D5C18F
:100D700082F0D6C183F0CFC184F0D0C185F0D1C15B
:100D800086F0D2C187F033EC12F00001D8A0CBEF8F
:100D900006F0CDEF06F030EF08F0D3C180F0D4C1FB
:100DA00081F0D5C182F0D6C183F0CBC184F0CCC133
:100DB00085F0CDC186F0CEC187F033EC12F0000192
:100DC000D8A0E5EF06F0E7EF06F030EF08F0D3C16A
:100DD00080F0D4C181F0D5C182F0D6C183F0CFC1FB
:100DE00084F0D0C185F0D1C186F0D2C187F0EFEC9C
:100DF0000DF080C079F181C07AF182C07BF183C0AF
:100E00007CF1D3C180F0D4C181F0D5C182F0D6C1CC
:100E100083F0CBC184F0CCC185F0CDC186F0CEC1CA
:100E200087F0EFEC0DF080C07DF181C07EF182C0D3
:100E30007FF183C080F1000E0001806F000E816F92
:100E4000800E826FBF0E836FD3C184F0D4C185F052
:100E5000D5C186F0D6C187F033EC12F00001D8A0DE
:100E600034EF07F036EF07F038EF07F077EF09F0CF
:100E7000120EB4258A6F000EB5218B6FAFC18CF0B6
:100E8000B0C18DF019EC15F09DC180F09EC181F0CC
:100E90009FC182F0A0C183F079C184F07AC185F04E
:100EA0007BC186F07CC187F033EC12F00001D8A042
:100EB0005CEF07F05EEF07F082EF07F0B4C08AF056
:100EC000B5C08BF0ADC18CF0AEC18DF019EC15F052
:100ED0009DC190F09EC191F09FC192F0A0C193F08E
:100EE00079C194F07AC195F07BC196F07CC197F0FE
:100EF000E6EC16F090C09DF191C09EF192C09FF17A
:100F000093C0A0F1A1C180F0A2C181F0A3C182F081
:100F1000A4C183F07DC184F07EC185F07FC186F0DD
:100F200080C187F033EC12F00001D8A09AEF07F0EF
:100F30009CEF07F0C2EF07F0240EB4258A6F000E75
:100F4000B5218B6FB1C18CF0B2C18DF019EC15F0E9
:100F5000A1C190F0A2C191F0A3C192F0A4C193F0FD
:100F60007DC194F07EC195F07FC196F080C197F06D
:100F7000E6EC16F090C0A1F191C0A2F192C0A3F1ED
:100F800093C0A4F19DC180F09EC181F09FC182F009
:100F9000A0C183F0000E0001846F000E856F800EEB
:100FA000866F3F0E876F78EC09F080C09DF181C09D
:100FB0009EF182C09FF183C0A0F1A1C180F0A2C1C7
:100FC00081F0A3C182F0A4C183F0000E0001846F00
:100FD000000E856F800E866F3F0E876F78EC09F0EC
:100FE00080C0A1F181C0A2F182C0A3F183C0A4F1AD
:100FF000D3C190F0D4C191F0D5C192F0D6C193F095
:10100000000E0001946F000E956F800E966F3F0EDC
:10101000976FE6EC16F090C0D3F191C0D4F192C076
:10102000D5F193C0D6F1000E0001806F000E816FE4
:10103000800E826FBF0E836FD3C184F0D4C185F060
:10104000D5C186F0D6C187F033EC12F00001D8A0EC
:101050002CEF08F02EEF08F038EF07F077EF09F0EB
:10106000CBC180F0CCC181F0CDC182F0CEC183F084
:10107000D3C184F0D4C185F0D5C186F0D6C187F044
:10108000EFEC0DF080C081F181C082F182C083F16C
:1010900083C084F1CBC180F0CCC181F0CDC182F09E
:1010A000CEC183F0CFC184F0D0C185F0D1C186F02C
:1010B000D2C187F0EFEC0DF080C085F181C086F1E0
:1010C00082C087F183C088F1000E0001806F000E9E
:1010D000816F800E826FBF0E836FCBC184F0CCC155
:1010E00085F0CDC186F0CEC187F033EC12F000015F
:1010F000D8A07DEF08F07FEF08F081EF08F077EFE0
:1011000009F0240EB4258A6F000EB5218B6FB1C192
:101110008CF0B2C18DF019EC15F0A5C180F0A6C11C
:1011200081F0A7C182F0A8C183F081C184F082C19F
:1011300085F083C186F084C187F033EC12F00001A2
:10114000D8A0A5EF08F0A7EF08F0CDEF08F0120E39
:10115000B4258A6F000EB5218B6FAFC18CF0B0C182
:101160008DF019EC15F0A5C190F0A6C191F0A7C1C2
:1011700092F0A8C193F081C194F082C195F083C12F
:1011800096F084C197F0E6EC16F090C0A5F191C0FE
:10119000A6F192C0A7F193C0A8F1A9C180F0AAC19D
:1011A00081F0ABC182F0ACC183F085C184F086C10F
:1011B00085F087C186F088C187F033EC12F000011A
:1011C000D8A0E5EF08F0E7EF08F00BEF09F0B4C0A6
:1011D0008AF0B5C08BF0ADC18CF0AEC18DF019ECCA
:1011E00015F0A9C190F0AAC191F0ABC192F0ACC1C9
:1011F00093F085C194F086C195F087C196F088C1BF
:1012000097F0E6EC16F090C0A9F191C0AAF192C057
:10121000ABF193C0ACF1A5C180F0A6C181F0A7C12C
:1012200082F0A8C183F0000E0001846F000E856F6C
:10123000800E866F3F0E876F78EC09F080C0A5F1B5
:1012400081C0A6F182C0A7F183C0A8F1A9C180F036
:10125000AAC181F0ABC182F0ACC183F0000E0001E5
:10126000846F000E856F800E866F3F0E876F78EC5F
:1012700009F080C0A9F181C0AAF182C0ABF183C09E
:10128000ACF1CBC190F0CCC191F0CDC192F0CEC108
:1012900093F0000E0001946F000E956F800E966F14
:1012A0003F0E976FE6EC16F090C0CBF191C0CCF1F9
:1012B00092C0CDF193C0CEF1000E0001806F000E00
:1012C000816F800E826FBF0E836FCBC184F0CCC163
:1012D00085F0CDC186F0CEC187F033EC12F000016D
:1012E000D8A075EF09F077EF09F081EF08F0120050
:1012F00000018351800B8C6F835183258E6F82AFE9
:1013000084EF09F086EF09F087EF09F08E818E51A6
:10131000D8B48DEF09F08FEF09F0A4EF09F08E2912
:10132000D8A495EF09F097EF09F09FEF09F0000EB0
:10133000806F000E816F000E826F000E836F828FB0
:10134000000E836FACEF09F0000E806F000E816F0E
:10135000000E826F000E836F8751800B8D6F8C5152
:101360008D19D8B4B6EF09F0B8EF09F0B9EF09F06C
:101370008C8D875187258D6F86AFC1EF09F0C3EF44
:1013800009F0C4EF09F08D818D51D8B4CAEF09F08E
:10139000CCEF09F0E1EF09F08D29D8A4D2EF09F0E4
:1013A000D4EF09F0DCEF09F0000E846F000E856FBA
:1013B000000E866F000E876F868F000E876FE9EF35
:1013C00009F0000E846F000E856F000E866F000E10
:1013D000876F8E518D5DD8B0F0EF09F0F2EF09F014
:1013E00019EF0AF08CADF7EF09F0F9EF09F0FBEF18
:1013F00009F0800E8C1B8EC08FF08DC08EF08FC0D8
:101400008DF080C08FF084C080F08FC084F081C0E8
:101410008FF085C081F08FC085F082C08FF086C0CC
:1014200082F08FC086F083C08FF087C083F08FC0BA
:1014300087F0000E8F6F8E518DC088F0896B885FAA
:10144000000E895B89BF2EEF0AF0895109E11A0E5F
:10145000885DD8A02EEF0AF030EF0AF067EF0AF0AF
:101460008051811182118311D8A439EF0AF03CEF29
:101470000AF0010E3DEF0AF0000E8F6F000E806F34
:10148000000E816F000E826F000E836F8DC08EF094
:1014900070EF0AF08FA14FEF0AF051EF0AF057EF0B
:1014A0000AF0D8908F3101098F6F59EF0AF0D89068
:1014B0008F3380A15EEF0AF060EF0AF061EF0AF06F
:1014C0008F8F833583338233813380338E2B8D51DD
:1014D0008E5DD8A06EEF0AF070EF0AF04AEF0AF0C6
:1014E0008CBD75EF0AF077EF0AF0B7EF0AF08E5176
:1014F000D8A47DEF0AF07FEF0AF089EF0AF0000E22
:10150000806F000E816F000E826F000E836FD8EF28
:101510000BF0845180278551812386518223875186
:10152000832383A196EF0AF098EF0AF044EF0BF0C3
:101530008FA19DEF0AF09FEF0AF0A5EF0AF0D89077
:101540008F3101098F6FA7EF0AF0D8908F3380A1F8
:10155000ACEF0AF0AEEF0AF0AFEF0AF08F8F8335F1
:1015600083338233813380338E2B44EF0BF08451ED
:10157000805D85518159865182598351800A886FD7
:101580008751800A8859D8B0C8EF0AF0CAEF0AF02C
:10159000F5EF0AF08051845D886F81518559896F1C
:1015A000825186598A6F835187598B6FFF0E882528
:1015B000806FFF0E8921816FFF0E8A21826FFF0EDF
:1015C0008B21836F800E8C1B8F6D8F51D8A4EBEF16
:1015D0000AF0EDEF0AF0FDEF0AF0010E8027000E91
:1015E000812382238323FDEF0AF08451805F85519C
:1015F000815B8651825B8751835B805181118211AF
:101600008311D8A406EF0BF008EF0BF03DEF0BF0C1
:101610008F51D8A40EEF0BF010EF0BF03DEF0BF055
:10162000000E806F000E816F000E826F000E836FC0
:10163000D8EF0BF0D89080378137823783378FAF60
:1016400024EF0BF026EF0BF027EF0BF080818FA13A
:101650002CEF0BF02EEF0BF032EF0BF0D8808F3722
:1016600034EF0BF0D8908F378E51D8B43AEF0BF09F
:101670003CEF0BF03DEF0BF08E0782AF42EF0BF02B
:1016800044EF0BF01AEF0BF0000E8D6F8FAF4BEFA6
:101690000BF04DEF0BF065EF0BF08FC088F07F0E75
:1016A0008817D8B456EF0BF058EF0BF05CEF0BF047
:1016B000010E8D6F65EF0BF080A161EF0BF063EF12
:1016C0000BF065EF0BF058EF0BF08D51D8B46BEFCA
:1016D0000BF06DEF0BF098EF0BF0010E8027000E72
:1016E00081238223832383A178EF0BF07AEF0BF021
:1016F00098EF0BF080C088F081C089F082C08AF03A
:1017000083C08BF08B358B338A338933883388C021
:1017100080F089C081F08AC082F08BC083F08E296E
:10172000D8B495EF0BF097EF0BF098EF0BF08E2BF2
:101730008E29D8B49EEF0BF0A0EF0BF0A8EF0BF0C2
:101740008E51D8A4A6EF0BF0A8EF0BF0BAEF0BF078
:10175000000E806F000E816F000E826F000E836F8F
:101760008E51D8A4B6EF0BF0B8EF0BF0BAEF0BF038
:10177000000E8C6F8EA1BFEF0BF0C1EF0BF0C4EF2A
:101780000BF0828FC5EF0BF0829FD8908E31836F64
:101790008CAFCDEF0BF0CFEF0BF0D0EF0BF0838FD2
:1017A00080C080F081C081F082C082F083C083F06D
:1017B000120000018751800B906F87518725966F2B
:1017C00086AFE5EF0BF0E7EF0BF0E8EF0BF096815B
:1017D0009651D8B4EEEF0BF0F0EF0BF003EF0CF0F6
:1017E0009629D8A4F6EF0BF0F8EF0BF000EF0CF011
:1017F000000E846F000E856F000E866F000E876FDF
:10180000868F0BEF0CF0000E846F000E856F000EBC
:10181000866F000E876F8B51800B901B8B518B2531
:10182000916F8AAF16EF0CF018EF0CF019EF0CF077
:1018300091819151D8B41FEF0CF021EF0CF034EFEF
:101840000CF09129D8A427EF0CF029EF0CF031EF20
:101850000CF0000E886F000E896F000E8A6F000E6C
:101860008B6F8A8F3CEF0CF0000E886F000E896F33
:10187000000E8A6F000E8B6F9151D8B442EF0CF0BE
:1018800044EF0CF04CEF0CF09651D8A44AEF0CF05A
:101890004CEF0CF056EF0CF0000E846F000E856FCD
:1018A000000E866F000E876FEEEF0DF08A518403F5
:1018B000F3CF9BF0F4CF9CF09B51926F936B946BA2
:1018C000956B9C51976F986B996B9A6B89518503B7
:1018D000F3CF9BF0F4CF9CF09B519227000E932303
:1018E000942395239C519727000E982399239A239C
:1018F00088518603F3CF9BF0F4CF9CF09B51922745
:10190000000E9323942395239C519727000E982330
:1019100099239A2394C095F093C094F092C093F0C9
:10192000926B88518503F3CF9BF0F4CF9CF09B51D1
:1019300092279C519323000E9423000E95238951E6
:101940008403F3CF9BF0F4CF9CF09B5192279C51E2
:101950009323000E9423000E952394C095F093C01A
:1019600094F092C093F0926B88518403F3CF9BF074
:10197000F4CF9CF09B5192279C519323000E94230B
:10198000000E95238A518503F3CF9BF0F4CF9CF092
:101990009B5197279C519823000E9923000E9A2360
:1019A00089518603F3CF9BF0F4CF9CF09B5197278E
:1019B0009C519823000E9923000E9A238A51860386
:1019C000F3CF9BF0F4CF9CF09B518C6F9C518D6FAB
:1019D0008E6B8F6B8EC08FF08DC08EF08CC08DF0B3
:1019E0008C6B8C5197278D5198238E5199238F5151
:1019F0009A2392C08CF093C08DF094C08EF095C065
:101A00008FF0190E09EF0DF0D8908F338E338D3390
:101A10008C33E82E04EF0DF08C5197278D519823CD
:101A20008E5199238F519A2394C095F093C094F0CE
:101A300092C093F0926B915196C08CF08D6B8C2775
:101A4000000E8D23820E8C259B6FFF0E8D219C6FC7
:101A50003FEF0DF0D8909737983799379A3795AF71
:101A600034EF0DF036EF0DF037EF0DF09781D89091
:101A700092379337943795379B07D8A09C0799AF37
:101A800044EF0DF046EF0DF02AEF0DF0000E916FD0
:101A900095AF4DEF0DF04FEF0DF073EF0DF0FF0E22
:101AA00092158C6FFF0E93158D6FFF0E94158E6F30
:101AB0007F0E95158F6F8C518D118E118F11D8B4AB
:101AC00064EF0DF066EF0DF06AEF0DF0010E916F0F
:101AD00073EF0DF097A16FEF0DF071EF0DF073EF55
:101AE0000DF066EF0DF09151D8B479EF0DF07BEF6A
:101AF0000DF09FEF0DF0010E9727000E982399230C
:101B00009A239AA186EF0DF088EF0DF09FEF0DF06C
:101B100097C08CF098C08DF099C08EF09AC08FF06D
:101B20008F358F338E338D338C338CC097F08DC0CF
:101B300098F08EC099F08FC09AF09B4B9C2B9CBF65
:101B4000AAEF0DF09C5108E19B29D8A0AAEF0DF057
:101B5000ACEF0DF0B6EF0DF0000E976F000E986F22
:101B6000800E996F7F0E9A6FE4EF0DF09CBFC3EF6C
:101B70000DF09C5106E19B05D8B0C1EF0DF0C3EF0D
:101B80000DF0CFEF0DF0000E976F000E986F000E66
:101B9000996F000E9A6F000E906FE4EF0DF09BC0EE
:101BA00096F0FF0E9717FF0E98177F0E9917000EED
:101BB0009A1796A1DEEF0DF0E0EF0DF0E1EF0DF0DA
:101BC000998FD89096319A6F90519A1397C084F05C
:101BD00098C085F099C086F09AC087F01200000185
:101BE0008351800B906F83518325976F82AFFBEFFA
:101BF0000DF0FDEF0DF0FEEF0DF097819751D8B489
:101C000004EF0EF006EF0EF01BEF0EF09729D8A4AC
:101C10000CEF0EF00EEF0EF016EF0EF0000E806FD0
:101C2000000E816F000E826F000E836F828F000E98
:101C3000836F23EF0EF0000E806F000E816F000E99
:101C4000826F000E836F8751800B901B8751872511
:101C5000986F86AF2EEF0EF030EF0EF031EF0EF0F2
:101C600098819851D8B437EF0EF039EF0EF04EEF5F
:101C70000EF09829D8A43FEF0EF041EF0EF049EF97
:101C80000EF0000E846F000E856F000E866F000E42
:101C9000876F868F000E876F56EF0EF0000E846FF1
:101CA000000E856F000E866F000E876F84518511C0
:101CB00086118711D8A45FEF0EF061EF0EF079EF77
:101CC0000EF0000E806F000E816F000E826F000E0E
:101CD000836F800E82137F0E83139051831380C015
:101CE00080F081C081F082C082F083C083F0BCEFBD
:101CF0000FF09751D8A47FEF0EF081EF0EF08BEF2D
:101D00000EF0000E806F000E816F000E826F000ECD
:101D1000836FBCEF0FF0985197C088F0896B885F94
:101D2000000E895B7F0E8825916F000E8921926FCE
:101D300080C08CF081C08DF082C08EF083C08FF0A7
:101D4000000E806F000E816F000E826F000E836F99
:101D5000000E936F000E946F000E956F000E966F3D
:101D6000000E986FECEF0EF09851D8B4BAEF0EF069
:101D7000BCEF0EF0D3EF0EF0D8908C378D378E3746
:101D80008F37D890803781378237833796AFCBEF44
:101D90000EF0CDEF0EF0CEEF0EF08081D89093379D
:101DA00094379537963784518C5D85518D5986517E
:101DB0008E5987518F59D8A0E0EF0EF0E2EF0EF068
:101DC000EBEF0EF0968D84518C5F85518D5B8651C3
:101DD0008E5B87518F5B982B190E9865F2EF0EF092
:101DE000F4EF0EF0B4EF0EF08C518D118E118F11B7
:101DF000D8B4FDEF0EF0FFEF0EF017EF0FF0938168
:101E000017EF0FF0D890803781378237833796AF3E
:101E10000CEF0FF00EEF0FF00FEF0FF08081D89066
:101E200093379437953796379107D8A0920782AFAA
:101E30001CEF0FF01EEF0FF002EF0FF0000E986F87
:101E400096AF25EF0FF027EF0FF04BEF0FF0FF0EDF
:101E50009315886FFF0E9415896FFF0E95158A6F85
:101E60007F0E96158B6F885189118A118B11D8B40A
:101E70003CEF0FF03EEF0FF042EF0FF0010E986FC6
:101E80004BEF0FF080A147EF0FF049EF0FF04BEF52
:101E90000FF03EEF0FF09851D8B451EF0FF053EF21
:101EA0000FF077EF0FF0010E8027000E81238223C1
:101EB000832383A15EEF0FF060EF0FF077EF0FF059
:101EC00080C088F081C089F082C08AF083C08BF026
:101ED0008B358B338A338933883388C080F089C04F
:101EE00081F08AC082F08BC083F0914B922B92BF1D
:101EF00082EF0FF0925108E19129D8A082EF0FF004
:101F000084EF0FF08FEF0FF0000E926F9169000ECB
:101F1000806F000E816F000E826F000E836F92BF84
:101F20009CEF0FF0925106E19105D8B09AEF0FF0B7
:101F30009CEF0FF0AAEF0FF0000E926F000E916F62
:101F4000000E806F000E816F000E826F000E836F97
:101F5000000E906F91C097F097A1B1EF0FF0B3EF23
:101F60000FF0B6EF0FF0828FB7EF0FF0829FD8908F
:101F70009731836F6DEF0EF012000001AE6F00011C
:101F8000AE51D8B4C6EF0FF0C8EF0FF0EAEF0FF084
:101F9000A9BFCFEF0FF0CDEF0FF0EAEF0FF0A6C023
:101FA000AAF0A7C0ABF0A8C0ACF0A9C0ADF0AA1FC2
:101FB000AB1FAC1FAD1FAA2B000EAB23AC23AD2370
:101FC000AAC0B0F0ABC0B1F0ACC0B2F0ADC0B3F0DD
:101FD000F2EF0FF0A6C0B0F0A7C0B1F0A8C0B2F009
:101FE000A9C0B3F0A651A711A811A911D8A4FBEF5D
:101FF0000FF0FDEF0FF007EF10F0000EA66F000ED0
:10200000A76F000EA86F000EA96F98EF10F0960E44
:10201000AF6F11EF10F0AF2BD890B333B233B133B1
:10202000B033000EB015AA6F000EB115AB6F000EE5
:10203000B215AC6FFE0EB315AD6FAA51AB11AC115A
:10204000AD11D8A426EF10F028EF10F00BEF10F030
:1020500036EF10F0AF2B010EB027000EB123B223E4
:10206000B323D890B333B233B133B033000EB015CD
:10207000AA6F000EB115AB6F000EB215AC6FFF0E5C
:10208000B315AD6FAA51AB11AC11AD11D8A44BEF84
:1020900010F04DEF10F02AEF10F055EF10F0AF07F1
:1020A000D890B037B137B237B337B2BF5AEF10F06C
:1020B0005CEF10F064EF10F0020EAF6162EF10F011
:1020C00064EF10F04FEF10F0AFB169EF10F06BEF6D
:1020D00010F06CEF10F0B29FD890AF33AFC0AAF001
:1020E000AB6BAC6BAD6BAAC0ADF0AC6BAB6BAA6B62
:1020F000AA51B013AB51B113AC51B213AD51B313DC
:10210000AE51D8B486EF10F088EF10F090EF10F0D9
:10211000A9BF8FEF10F08DEF10F090EF10F0B38F9C
:10212000B0C0A6F0B1C0A7F0B2C0A8F0B3C0A9F08B
:102130001200000E0001DB6F000EDA6F000E896ED8
:10214000000E8A6E000E8B6E000E8C6E000E8D6E71
:102150004F0E9A6F010E9B6F800E9C6F250E9D6F28
:10216000000E9E6F000E9F6F4DEC17F0A7EC13F062
:1021700021EE19F0350EEBCFDBFFE806FCE2000E96
:1021800001011D6F000E1E6FA00E1F6F410E206F0C
:10219000000E2F6F000E306F700E316F420E326FD7
:1021A000000E416F000E426F160E436F430E446FD8
:1021B000190E0001B46F010EB56F54EC03F049EC39
:1021C00016F0670E0001806F010E816F36EC19F07A
:1021D00080C044F081C045F082C046F083C047F023
:1021E0006B0E0001806F010E816F36EC19F080C01C
:1021F0003CF081C03DF082C03EF083C03FF0630EF2
:102200000001806F010E816F36EC19F080C040F044
:1022100081C041F082C042F083C043F00BEC19F062
:102220006F0E0001806F010E816F000E826F000E35
:10223000836FBAEC18F080C038F081C039F082C0EA
:102240003AF083C03BF0DAC0D7F1DBC0D8F112001E
:10225000000E0001896F87BF32EF11F030EF11F0EF
:102260003CEF11F0871F861F851F846D000E8523AC
:1022700086238723010E896F83BF43EF11F041EF5F
:1022800011F04DEF11F0831F821F811F806D000E32
:10229000812382238323010E891B000E8A6F000E87
:1022A0008B6F000E8C6F000E8D6F8451851186111F
:1022B0008711D8B45EEF11F060EF11F096EF11F0D6
:1022C000010E886F6AEF11F0D89084378537863712
:1022D0008737882B87AF6FEF11F071EF11F064EF44
:1022E00011F0D8908A378B378C378D378451805DC9
:1022F000855181598651825987518359D8A083EFDE
:1023000011F085EF11F08EEF11F08451805F85514F
:10231000815B8651825B8751835B8A81D89087334A
:10232000863385338433882F71EF11F08951D8B407
:102330009CEF11F09EEF11F0A6EF11F08D1F8C1F96
:102340008B1F8A6D000E8B238C238D238AC080F017
:102350008BC081F08CC082F08DC083F01200000130
:102360009A359B35A16FA151D8A4B9EF11F0BBEFFD
:1023700011F0C5EF11F0000E986F000E996F000E6E
:102380009A6F000E9B6F32EF12F098C09CF099C0CC
:102390009DF09AC09EF09BC09FF0200ED5EF11F0EB
:1023A000D8909F339E339D339C33E82ED0EF11F0AD
:1023B0009C51A06F9A8FFF0E9817FF0E9917FF0E72
:1023C0009A17000E9B17960EA15FA1BFECEF11F0BC
:1023D000EAEF11F002EF12F0A151800A970FD8B086
:1023E000F4EF11F0F6EF11F0F8EF11F0BBEF11F090
:1023F000D8909B339A3399339833A13FF8EF11F07B
:102400001AEF12F01F0EA16508EF12F00AEF12F09A
:1024100012EF12F0BBEF11F0D890983799379A3736
:102420009B37A107A151D8A418EF12F01AEF12F0B0
:102430000CEF12F0A051D8B420EF12F022EF12F0FE
:102440002AEF12F09B1F9A1F991F986D000E992377
:102450009A239B2398C098F099C099F09AC09AF05B
:102460009BC09BF01200000E00018015886F000ECB
:102470008115896F800E82158A6F7F0E83158B6F91
:10248000885189118A118B11D8A449EF12F04BEFB2
:1024900012F053EF12F0000E806F000E816F000EED
:1024A000826F000E836F000E8415886F000E8515F5
:1024B000896F800E86158A6F7F0E87158B6F885106
:1024C00089118A118B11D8A468EF12F06AEF12F00B
:1024D00072EF12F0000E846F000E856F000E866F93
:1024E000000E876F83AF77EF12F079EF12F082EF73
:1024F00012F0806D811FD8B0812B821FD8B0822B43
:10250000800E835787AF87EF12F089EF12F092EFBA
:1025100012F0846D851FD8B0852B861FD8B0862B0E
:10252000800E8757000E801B000E811B000E821B41
:10253000800E831B000E841B000E851B000E861B65
:10254000800E871B8451805D855181598651825947
:1025500087518359D8B0AFEF12F0B1EF12F0B4EF5A
:1025600012F0D890B5EF12F0D88012000600FACF22
:1025700010F0FBCF11F0E9CF12F0EACF13F0E1CF6A
:1025800014F0E2CF15F0D9CF16F0DACF17F0F3CF71
:1025900018F0F4CF19F0F6CF1AF0F7CF1BF0F8CF00
:1025A0001CF0F5CF1DF001014F515011D8B4DBEFF5
:1025B00012F0DDEF12F016EF13F021EE00F010EE46
:1025C0001EF0130EDBCFE3FFE806FCE21E0E046EE6
:1025D000000E056E000E076E140E066E21EE53F00F
:1025E00002D8FDEF12F00500FA6EDE50FD6EDE50EF
:1025F000FE6EF850FF6EFA5012001E0E036E000EB3
:10260000046E21EE59F002D810EF13F00500FA6EB7
:10261000DE50FD6EDE50FE6EF850FF6EFA50120076
:10262000440E0B6E000E0C6E46EC18F01DC0F5FF4C
:102630001CC0F8FF1BC0F7FF1AC0F6FF19C0F4FF5B
:1026400018C0F3FF17C0DAFF16C0D9FF15C0E2FFAC
:1026500014C0E1FF13C0EAFF12C0E9FF11C0FBFF85
:1026600010C0FAFF60921100920E0001806F330ECD
:10267000816F020E826F330E836FA2EC17F080C061
:102680005CF081C05DF082C05EF083C05FF08E0EB2
:102690000001806F330E816F020E826F330E836FE5
:1026A000A2EC17F080C058F081C059F082C05AF0F7
:1026B00083C05BF0960E0001806F330E816F020EB7
:1026C000826F330E836FA2EC17F080C054F081C08C
:1026D00055F082C056F083C057F08A0E0001806F1B
:1026E000330E816FEA0E826F320E836FA2EC17F009
:1026F00080C050F081C051F082C052F083C053F0CE
:10270000860E0001806F330E816FEA0E826F320EEB
:10271000836FA2EC17F080C04CF081C04DF082C0F6
:102720004EF083C04FF0820E0001806F330E816F38
:10273000EA0E826F320E836FA2EC17F080C048F071
:1027400081C049F082C04AF083C04BF0120034ECE3
:1027500013F05C0E0001806F000E816F500E826FCF
:10276000000E836F6CEC17F021EE71F0110EEBCFC1
:10277000DBFFE806FCE2580E0001806F000E816F5F
:102780004C0E826F000E836F6CEC17F021EE83F01D
:10279000110EEBCFDBFFE806FCE2540E0001806F68
:1027A000000E816F480E826F000E836F6CEC17F085
:1027B00021EE95F0110EEBCFDBFFE806FCE2710E87
:1027C0000001806F010E816F000E826F000E836F1B
:1027D000480E846F420E856FDBEC18F0830E00010B
:1027E000806F010E816F000E826F000E836F480EA6
:1027F000846F420E856FDBEC18F0950E0001806F40
:10280000010E816F000E826F000E836F480E846F81
:10281000420E856FDBEC18F021EE71F000EEA4F0B3
:10282000350EDBCFEBFFE806FCE2120080C0D9FFDB
:1028300081C0DAFF360EDE6E320EDD6E000120EE54
:1028400012F08051D9268151DA22000EDE6E000E80
:10285000DD6E20EE02F08051D9268151DA22A00EE1
:10286000DE6E320EDD6E20EE04F08051D9268151ED
:10287000DA22F40EDE6E280EDD6E20EE06F08051B8
:10288000D9268151DA22000EDE6E000EDD6E20EEBA
:102890000CF08051D9268151DA22000EDE6E000E36
:1028A000DD6E20EE0EF08051D9268151DA22000E25
:1028B000DE6E000EDD6E20EE10F08051D9268151C3
:1028C000DA22000EDE6E000EDD6E20EE0AF0805180
:1028D000D9268151DA22060EDE6E310EDD6E20EE33
:1028E00008F08051D9268151DA22A80EDE6E2B0E17
:1028F000DD6E1200000E0E6E000E0D6E000E0E6EDE
:10290000000E0D6EADEF14F050EC19F00F6E0F507D
:10291000D8B48DEF14F08FEF14F0C8EF14F00A0E56
:102920000F18D8B496EF14F098EF14F0C8EF14F025
:102930000D0E0F18D8A49FEF14F0A1EF14F0A3EF21
:1029400014F0C8EF14F00D500424D96E0E50052079
:10295000DA6E0FC0DFFF0D4A0E2AFF0E086EFF0E63
:10296000096E06C00AF007C00BF008500A2609508D
:102970000B220A500D5C0E50800A0C6E0B50800A20
:102980000C58D8A0C6EF14F0C8EF14F084EF14F080
:102990000D500424086E0E500520096E010E082407
:1029A000D96E000E0920DA6E000EDF6E12003C0EAA
:1029B00000018A6F000E8B6FEEEC17F0380E0001ED
:1029C000876F000E886F96EC18F000018751881110
:1029D000D8B4EDEF14F0EFEF14F012EF15F09A0EFB
:1029E000826F060E836F21EE59F002D802EF15F0C8
:1029F0000500FA6EDE50FD6EDE50FE6EF850FF6E82
:102A0000FA501200400E00018A6F000E8B6FEEEC40
:102A100017F0440E00018A6F000E8B6F04EC18F063
:102A200018EF15F0400E8A6F000E8B6F04EC18F053
:102A3000120000018C518D11D8A421EF15F023EF65
:102A400015F031EF15F020EE0CF08A51D9268B519C
:102A5000DA22DECF88F0DDCF89F01AEC18F03DEFF6
:102A600015F020EE0CF08A51D9268B51DA22DECFF8
:102A700088F0DDCF89F030EC18F0000120EE0AF08C
:102A80008A51D9268B51DA22DECF88F0DDCF89F04A
:102A90001AEC18F0000120EE0AF08A51D9268B5169
:102AA000DA22DECF88F0DDCF89F030EC18F01200AA
:102AB0009CC080F09DC081F0EBEC18F080C084F0E9
:102AC00081C085F082C086F083C087F0120E0001BD
:102AD0009C25806F000E9D21816FEBEC18F080C06B
:102AE00088F081C089F082C08AF083C08BF0240E08
:102AF00000019C25806F000E9D21816FEBEC18F08A
:102B000080C08CF081C08DF082C08EF083C08FF0C9
:102B10000AEC17F0E9CFD9FFEACFDAFF00EE9CF01C
:102B20000B0EDBCFEBFFE806FCE212009CC080F04E
:102B30009DC081F029EC19F080C084F081C085F03F
:102B400082C086F083C087F0120E00019C25806F42
:102B5000000E9D21816F29EC19F080C088F081C0A2
:102B600089F082C08AF083C08BF0240E00019C257E
:102B7000806F000E9D21816F29EC19F080C08CF0D0
:102B800081C08DF082C08EF083C08FF00AEC17F008
:102B9000E9CFD9FFEACFDAFF00EE9CF00B0EDBCFD6
:102BA000EBFFE806FCE2120060A2D9EF15F083EF1C
:102BB00016F0F6EF15F09EA8E0EF15F0E2EF15F035
:102BC000DBEF15F080C0F6FF81C0F7FFF86A050E55
:102BD000F76403D00800F55005D0F6CFE9FFF7CF32
:102BE000EAFFEF50AD6E0001804B812B80C0F6FFF5
:102BF00081C0F7FFF86A050EF76403D00800F550AE
:102C000005D0F6CFE9FFF7CFEAFFEF500009D8A4CF
:102C10000CEF16F00EEF16F0DBEF15F012008EC081
:102C200092F08FC093F090C094F091C095F0040E94
:102C3000D89000019237933794379537E82E18EFE4
:102C400016F092C096F093C097F094C098F095C09B
:102C500099F0000E806F120E816F7A0E826F000E57
:102C6000836F96C084F097C085F098C086F099C0B5
:102C700087F028EC11F0FF0E000180258E6FFF0E0B
:102C800081218F6FFF0E8221906FFF0E8321916F44
:102C900012007E0E0001806F330E816FD20E826FA4
:102CA000320E836FA2EC17F080C06BF181C06CF123
:102CB00082C06DF183C06EF17A0E0001806F330E19
:102CC000816F1A0E826F330E836FA2EC17F080C0F3
:102CD00067F181C068F182C069F183C06AF1760E44
:102CE0000001806F330E816FBA0E826F320E836FD8
:102CF000A2EC17F080C063F181C064F182C065F17D
:102D000083C066F112009FEF16F09EA88AEF16F0BE
:102D10008CEF16F085EF16F001C0F6FF02C0F7FF4A
:102D2000F86A050EF76403D00800F55005D0F6CF19
:102D3000E9FFF7CFEAFFEF50AD6E014A022A01C06A
:102D4000F6FF02C0F7FFF86A050EF76403D008002B
:102D5000F55005D0F6CFE9FFF7CFEAFFEF500009B5
:102D6000D8A4B5EF16F0B7EF16F085EF16F0120005
:102D700083C080F084C081F083C0D9FF84C0DAFFB3
:102D800002D8CDEF16F00500FA6EDE50FD6EDE5073
:102D9000FE6EF850FF6EFA50120080C085F081C0C0
:102DA00086F0000185518611D8B4D9EF16F0DBEF1B
:102DB00016F0E1EF16F085C083F086C084F0E5EFF1
:102DC00016F0000E846F000E836F1200000E0001DB
:102DD000941B000E951B000E961B800E971B90C037
:102DE00080F091C081F092C082F093C083F094C0D3
:102DF00084F095C085F096C086F097C087F078EC97
:102E000009F080C090F081C091F082C092F083C040
:102E100093F0120084C090F085C091F086C092F0CB
:102E200087C093F088C094F089C095F08AC096F06E
:102E30008BC097F08CC098F08DC099F08EC09AF03E
:102E40008FC09BF020EE90F000EE84F00B0EDBCFF5
:102E5000EBFFE806FCE212000001A3BF3AEF17F017
:102E6000A35106E1A205D8B038EF17F03AEF17F0FA
:102E700048EF17F0A2C0A4F0A3C0A5F0A41FA51F9F
:102E8000A44BA52BA4C0A2F0A5C0A3F04CEF17F053
:102E9000A2C0A2F0A3C0A3F01200B7EC19F0720E0A
:102EA000D36EAC849CC08EF09DC08FF09EC090F01D
:102EB0009FC091F00FEC16F000018E51AF6EAC98F0
:102EC000AB8E948C948EAC8AAB889AC080F09BC0F9
:102ED00081F016EC14F0120080C09CF081C09DF0CF
:102EE00082C09EF083C09FF0000E0001A06F000E14
:102EF000A16F800EA26F3F0EA36F20EE92F000EE46
:102F000080F0110EDBCFEBFFE806FCE21200840E2E
:102F10000001806F000E816F86C082F087C083F051
:102F200084C0D9FF85C0DAFF02D8A1EF17F00500F1
:102F3000FA6EDE50FD6EDE50FE6EF850FF6EFA50F7
:102F40001200120082C084F083C085F002D8B4EF72
:102F500017F005000001FA6E8051FD6E8151FE6E82
:102F6000F850FF6EFA50120084C080F085C081F0E6
:102F700086C082F087C083F01200050E016E000E3D
:102F8000026E07C003F008C004F005C0D9FF06C0F8
:102F9000DAFF02D8D6EF17F00500FA6EDE50FD6EAC
:102FA000DE50FE6EF850FF6EFA501200120002D88A
:102FB000E5EF17F005000001FA6E8051FD6E8151BA
:102FC000FE6EF850FF6EFA50120082C084F083C08B
:102FD00085F084C080F085C081F01200000120EEF1
:102FE00002F08A51D9268B51DA22010EDE6E000ED4
:102FF000DD6E8AC0D9FF8BC0DAFFDECF88F0DDCF6F
:1030000089F01AEC18F01200000120EE02F08A514B
:10301000D9268B51DA22000EDE6E000EDD6E8AC0DC
:10302000D9FF8BC0DAFFDECF88F0DDCF89F030EC3E
:1030300018F01200000120EE02F08851D9268951C3
:10304000DA22010EDE6E000EDD6E88C084F089C0CB
:1030500085F0000E876F010E866F87EC17F0120067
:10306000000120EE02F08851D9268951DA22000EA3
:10307000DE6E000EDD6E88C084F089C085F0000E23
:10308000876F000E866F87EC17F0120020EE02F0BB
:103090000B50D9260C50DA22010EDE6E000EDD6ECA
:1030A0000BC0D9FF0CC0DAFFDECF09F0DDCF0AF08C
:1030B0005BEC18F0120020EE02F00950D9260A50FD
:1030C000DA22010EDE6E000EDD6E09C005F00AC0C8
:1030D00006F0000E086E010E076EBDEC17F0120030
:1030E00001EE00F0710EEE6AE806FDE100EE32F04E
:1030F0002E0EEE6AE806FDE160906092000EF86E1A
:103100000001A9EF18F060A288EF18F043EF19F062
:1031100082C080F083C081F0D4EC15F0A40E0001D1
:10312000806F060E816FD4EC15F0120087C0D9FFB6
:1031300088C0DAFFDECF83F0DDCF84F0B8EC16F084
:1031400083C089F084C08AF089C087F08AC088F083
:10315000120099EC10F0D7C1DCF0D8C1DDF0DC0E24
:1031600000018C6F000E8D6FD7EC14F0AFEF18F0EC
:1031700007EF00F080C084F081C085F082C086F047
:1031800083C087F084C080F085C081F086C082F063
:1031900087C083F0120083B4D0EF18F0D5EF18F099
:1031A0000001826B822BD7EF18F00001826B8251F5
:1031B000806F816B1200000120EE0EF08051D92645
:1031C0008151DA2282C0DEFF83C0DEFF84C0DEFFD1
:1031D00085C0DEFF1200000120EE04F08051D926E8
:1031E0008151DA22DECF80F0DECF81F0DECF82F0B7
:1031F000DECF83F01200000120EE0EF08051D926C0
:103200008151DA22DECF80F0DECF81F0DECF82F096
:10321000DECF83F012009A0E0001806F330E816FB3
:10322000960E826F310E836FD7EC17F080C06FF16E
:1032300081C070F112009EBA20EF19F024EF19F04E
:10324000036A032A25EF19F0036A0350016E026A2C
:10325000120080C0D9FF81C0DAFFDECF80F0DECF60
:1032600081F0DECF82F0DECF83F0120080C084F0E8
:1032700081C085F084C080F085C081F086C082F076
:1032800087C083F0120003C001F004C002F083EC99
:1032900016F0A40E016E060E026E83EC16F01200FC
:1032A0001BEC19F001500210D8B459EF19F05BEF84
:1032B00019F050EF19F0AE50120060A262EF19F051
:1032C00099EF19F0000182B102D08B9601D08B8664
:1032D000120060A26EEF19F09FEF19F0000182B1A9
:1032E00002D08C9201D08C82120060A27AEF19F089
:1032F000A5EF19F0000182B102D08A9001D08A8036
:10330000120060A286EF19F0ABEF19F0000182B154
:1033100002D08B9001D08B80120060A292EF19F046
:10332000B1EF19F0000182B102D08C9001D08C80F5
:10333000120003B002D08B9601D08B86120003B02E
:1033400002D08C9201D08C82120003B002D08A90FD
:1033500001D08A80120003B002D08B9001D08B8004
:10336000120003B002D08C9001D08C801200F28E3B
:10337000F28C9D8A120094961200959012009592FC
:103380001200939412009392120093901200949260
:0E339000120094901200949412009584120082
:020000040020DA
:08000000FFFFFFFFFFFFFFFF00
:020000040030CA
:0E000000FF081F1CFF0185FF0FC00FE00F401F
:00000001FF
