:020000040000FA
:0400000007EF00F016
:0A0008005C82E1ED03F08DEF07F0DC
:100600000000000000DCCFD1350000000000C01564
:100610003F6042A20D70A5EC363BAAB83F4F38763A
:100620003F3CAA38338CBEBF350072313F1872315F
:100630003F4CBB31330EEADDB555B38A38610B361A
:10064000BBABAA2A3E42F1533E55326C3E05A38B0A
:100650003EABAAAA3EB76DDB3E9A99193F6042A213
:100660000DCAF249710000804B0000803F0000C0BD
:100670003F00AAB83FC623F6B80040763F506F69E6
:100680006E743A7B783A252E33662C793A252E33D0
:10069000662C7A3A252E33667D00626173C4B16C94
:1006A0006D6164C4B100626173C4B16C64C4B100B3
:1006B0000D0A0000000E0001C66FC4BF64EF03F016
:1006C00062EF03F06EEF03F0C41FC31FC21FC16DC2
:1006D000000EC223C323C423010EC66FC0BF75EF33
:1006E00003F073EF03F07FEF03F0C01FBF1FBE1FC7
:1006F000BD6D000EBE23BF23C023010EC61B000E1E
:10070000C76F000EC86F000EC96F000ECA6FC151CF
:10071000C211C311C411D8B490EF03F092EF03F0EB
:10072000C8EF03F0010EC56F9CEF03F0D890C137FE
:10073000C237C337C437C52BC4AFA1EF03F0A3EF53
:1007400003F096EF03F0D890C737C837C937CA37D8
:10075000C151BD5DC251BE59C351BF59C451C059E9
:10076000D8A0B5EF03F0B7EF03F0C0EF03F0C1512D
:10077000BD5FC251BE5BC351BF5BC451C05BC7818B
:10078000D890C433C333C233C133C52FA3EF03F0B2
:10079000C651D8B4CEEF03F0D0EF03F0D8EF03F09A
:1007A000CA1FC91FC81FC76D000EC823C923CA238B
:1007B000C7C0BDF0C8C0BEF0C9C0BFF0CAC0C0F05D
:1007C00012000600FACF10F0FBCF11F0E9CF12F0C3
:1007D000EACF13F0E1CF14F0E2CF15F0D9CF16F045
:1007E000DACF17F0F6CF18F0F7CF19F0F8CF1AF0EC
:1007F000F5CF1BF00001A151A211D8B402EF04F013
:1008000004EF04F043EF04F020EE80F010EE1CF053
:10081000130EDBCFE3FFE806FCE21C0E046E000EB5
:10082000056E000E076E140E066E20EEA5F002D8BF
:1008300024EF04F00500FA6EDE50FD6EDE50FE6E11
:10084000F850FF6EFA5012001C0E036E000E046E7C
:1008500020EEABF002D837EF04F00500FA6EDE5060
:10086000FD6EDE50FE6EF850FF6EFA5012001C0E48
:10087000036E000E046E1AEC07F0360E036E000EC7
:10088000046E78EC07F01BC0F5FF1AC0F8FF19C022
:10089000F7FF18C0F6FF17C0DAFF16C0D9FF15C062
:1008A000E2FF14C0E1FF13C0EAFF12C0E9FF11C06C
:1008B000FBFF10C0FAFF5C921100000E0001E06F18
:1008C000000EDF6F000E896E000E8A6E000E8B6EBA
:1008D000000E8C6E000E8D6EA10ED76F000ED86FBD
:1008E000800ED96F250EDA6F000EDB6F000EDC6F05
:1008F000E0EC06F04FEC06F03A0E0001BD6F000E82
:10090000BE6FF3EC07F0BDC036F0BEC037F0BFC01D
:1009100038F0C0C039F03E0E0001BD6F000EBE6F52
:10092000F3EC07F0BDC0B5F0BEC0B6F0BFC0B7F085
:10093000C0C0B8F0B90E0001BD6F000EBE6FF3EC81
:1009400007F0BDC032F0BEC033F0BFC034F0C0C04D
:1009500035F0D5EC07F05A0E0001BD6F000EBE6FEA
:10096000000EBF6F000EC06FC4EC07F0BDC09DF05D
:10097000BEC09EF0BFC09FF0C0C0A0F0DFC0DDF0E1
:10098000E0C0DEF01200BDC0D9FFBEC0DAFFCA0E63
:10099000DE6E0F0EDD6E000120EE12F0BD51D92685
:1009A000BE51DA22000EDE6E000EDD6E20EE02F089
:1009B000BD51D926BE51DA221A0EDE6E100EDD6E42
:1009C00020EE04F0BD51D926BE51DA224E0EDE6E65
:1009D0000A0EDD6E20EE06F0BD51D926BE51DA2298
:1009E000000EDE6E000EDD6E20EE0CF0BD51D9263D
:1009F000BE51DA22000EDE6E000EDD6E20EE0EF02D
:100A0000BD51D926BE51DA22000EDE6E000EDD6E1B
:100A100020EE10F0BD51D926BE51DA22000EDE6E56
:100A2000000EDD6E20EE0AF0BD51D926BE51DA224D
:100A3000400EDE6E0F0EDD6E20EE08F0BD51D926A1
:100A4000BE51DA22B40EDE6E0B0EDD6E1200000E09
:100A50000E6E000E0D6E000E0E6E000E0D6E5AEF35
:100A600005F00DEC08F00F6E0F50D8B43AEF05F01A
:100A70003CEF05F075EF05F00A0E0F18D8B443EF00
:100A800005F045EF05F075EF05F00D0E0F18D8A431
:100A90004CEF05F04EEF05F050EF05F075EF05F067
:100AA0000D500424D96E0E500520DA6E0FC0DFFF02
:100AB0000D4A0E2AFF0E086EFF0E096E06C00AF0E0
:100AC00007C00BF008500A2609500B220A500D5C93
:100AD0000E50800A0C6E0B50800A0C58D8A073EF91
:100AE00005F075EF05F031EF05F00D500424086EA8
:100AF0000E500520096E010E0824D96E000E092043
:100B0000DA6E000EDF6E1200B50E0001BF6F000E30
:100B1000C06F4CEC07F05A0E0001BD6F000EBE6FA7
:100B20003DEC08F00001BD51BE11D8B49AEF05F0BC
:100B30009CEF05F0BFEF05F0A60EBF6F060EC06F6D
:100B400020EEABF002D8AFEF05F00500FA6EDE50F4
:100B5000FD6EDE50FE6EF850FF6EFA501200320E3F
:100B60000001BF6F000EC06F4CEC07F0360E0001A5
:100B7000BF6F000EC06F62EC07F0D9EF05F09A0E60
:100B8000BF6F060EC06F20EEABF002D8D2EF05F0BB
:100B90000500FA6EDE50FD6EDE50FE6EF850FF6E00
:100BA000FA501200320E0001BF6F000EC06F62ECEF
:100BB00007F012005CA2DFEF05F089EF06F0FCEF12
:100BC00005F09EA8E6EF05F0E8EF05F0E1EF05F08F
:100BD000BDC0F6FFBEC0F7FFF86A050EF76403D08C
:100BE0000800F55005D0F6CFE9FFF7CFEAFFEF5048
:100BF000AD6E0001BD4BBE2BBDC0F6FFBEC0F7FF02
:100C0000F86A050EF76403D00800F55005D0F6CF5A
:100C1000E9FFF7CFEAFFEF500009D8A412EF06F082
:100C200014EF06F0E1EF05F01200CBC0CFF0CCC01E
:100C3000D0F0CDC0D1F0CEC0D2F0040ED8900001DB
:100C4000CF37D037D137D237E82E1EEF06F0CFC0DE
:100C5000D3F0D0C0D4F0D1C0D5F0D2C0D6F0000EC1
:100C6000BD6F120EBE6F7A0EBF6F000EC06FD3C085
:100C7000C1F0D4C0C2F0D5C0C3F0D6C0C4F05AECA5
:100C800003F0FF0E0001BD25CB6FFF0EBE21CC6F20
:100C9000FF0EBF21CD6FFF0EC021CE6F1200AA0E36
:100CA0000001BD6F100EBE6F000EBF6F000EC06F53
:100CB000FFEC06F0BDC03EF0BEC03FF0BFC040F04C
:100CC000C0C041F0A60E0001BD6F100EBE6F000E39
:100CD000BF6F000EC06FFFEC06F0BDC03AF0BEC0A3
:100CE0003BF0BFC03CF0C0C03DF0A20E0001BD6FA4
:100CF000100EBE6F000EBF6F000EC06FFFEC06F04F
:100D0000BDC0B9F0BEC0BAF0BFC0BBF0C0C0BCF03F
:100D10001200A5EF06F09EA890EF06F092EF06F005
:100D20008BEF06F001C0F6FF02C0F7FFF86A050E70
:100D3000F76403D00800F55005D0F6CFE9FFF7CFF0
:100D4000EAFFEF50AD6E014A022A01C0F6FF02C071
:100D5000F7FFF86A050EF76403D00800F55005D0D8
:100D6000F6CFE9FFF7CFEAFFEF500009D8A4BBEFB9
:100D700006F0BDEF06F08BEF06F01200016E8C9CC2
:100D8000410EE82EFED700D0080E026ED89001303A
:100D9000016ED8A002D08C8C01D08C9C400EE82E25
:100DA000FED702060250D8A4D8EF06F0DAEF06F01C
:100DB000C6EF06F08C8C450EE82EFED700F0120030
:100DC00043EC08F0720ED36EAC84D9C0CBF0DAC01D
:100DD000CCF0DBC0CDF0DCC0CEF015EC06F00001AD
:100DE000CB51AF6EAC98AB8E948C948EAC8AAB88A2
:100DF000D7C0BDF0D8C0BEF0C3EC04F01200BFC035
:100E0000C1F0C0C0C2F002D811EF07F00500000128
:100E1000FA6EBD51FD6EBE51FE6EF850FF6EFA5077
:100E20001200C1C0BDF0C2C0BEF0C3C0BFF0C4C09C
:100E3000C0F0120028EF07F083AA21EF07F023EF9C
:100E400007F01CEF07F00350BEEC06F0034A042A3B
:100E500003C0D9FF04C0DAFFDF50D8A432EF07F097
:100E600034EF07F01CEF07F01200BFC0C3F0C0C0A2
:100E7000C4F002D847EF07F005000001FA6EBD513B
:100E8000FD6EBE51FE6EF850FF6EFA501200C3C0E8
:100E9000BDF0C4C0BEF01200000120EE02F0BF5150
:100EA000D926C051DA22010EDE6E000EDD6EBFC003
:100EB000D9FFC0C0DAFFDECFBDF0DDCFBEF01AEC47
:100EC00008F01200000120EE02F0BF51D926C051F7
:100ED000DA22000EDE6E000EDD6EBFC0D9FFC0C08C
:100EE000DAFFDECFBDF0DDCFBEF026EC08F0120059
:100EF00020EE02F00350D9260450DA22010EDE6EF5
:100F0000000EDD6E03C0D9FF04C0DAFFDECF01F0B2
:100F1000DDCF02F032EC08F0120000EE80F03D0E62
:100F2000EE6AE806FDE100EE30F02C0EEE6AE8060F
:100F3000FDE15C905C92000EF86E0001B3EF07F0EB
:100F40005CA2A5EF07F000EF08F0BFC0BDF0C0C085
:100F5000BEF0DAEC05F0B00E0001BD6F060EBE6FFC
:100F6000DAEC05F012005DEC04F0DDC0E1F0DEC06B
:100F7000E2F0E10E0001C16F000EC26F84EC05F0DB
:100F8000B9EF07F007EF00F0BDC0C1F0BEC0C2F07E
:100F9000BFC0C3F0C0C0C4F0C1C0BDF0C2C0BEF08D
:100FA000C3C0BFF0C4C0C0F01200B20E0001BD6FDC
:100FB000100EBE6F000EBF6F000EC06F35EC07F055
:100FC000BDC05AF0BEC05BF012009EBAEAEF07F057
:100FD000EEEF07F0036A032AEFEF07F0036A03500E
:100FE000016E026A1200BDC0C1F0BEC0C2F0C1C035
:100FF000BDF0C2C0BEF0C3C0BFF0C4C0C0F012009C
:1010000003C001F004C002F089EC06F0B00E016EDE
:10101000060E026E89EC06F01200E5EC07F00150B6
:101020000210D8B416EF08F018EF08F00DEF08F032
:10103000AE501200000120EE02F0BD51D926BE5183
:10104000DA22010EDE6E000EDD6E1200000120EECF
:1010500002F0BD51D926BE51DA22000EDE6E000E1E
:10106000DD6E120020EE02F00150D9260250DA2285
:10107000010EDE6E000EDD6E1200000E0001BE6F6E
:10108000000EBD6F1200F28EF28C9D8A12009394B6
:101090001200939212009390120094921200949076
:1010A000120094961200959012009592120094945A
:0610B000120095841200FD
:020000040020DA
:08000000FFFFFFFFFFFFFFFF00
:020000040030CA
:0E000000FF081F1CFF0185FF0FC00FE00F401F
:00000001FF
